026435000000001INSTITUTO FEDERAL DO RIO GRANDE DO NORTEIFRN      26435000999999
026435000000002REITORIA DO INSTITUTUO FEDERAL DO RN    RE        26435000000001
026435000000009RE-DIRETORIA DE GESTAO DE PESSOAS       DIGPE     26435000000002
126435000000012RE-ASSESSORIA JURIDICA                  ASJUR     26435000000002
126435000000030CAMPUS APODI                            CAMPAP    26435000000002
126435000000035CAMPUS CAICO                            CAMPCA    26435000000002